{
  "contractName": "TOCToken",
  "abi": [
    {
      "inputs": [],
      "stateMutability": "nonpayable",
      "type": "constructor"
    },
    {
      "inputs": [],
      "name": "totalSupply",
      "outputs": [
        {
          "internalType": "uint256",
          "name": "",
          "type": "uint256"
        }
      ],
      "stateMutability": "view",
      "type": "function",
      "constant": true
    }
  ],
  "bytecode": "0x608060405234801561001057600080fd5b50620f424060008190555060b3806100296000396000f3fe6080604052348015600f57600080fd5b506004361060285760003560e01c806318160ddd14602d575b600080fd5b60336047565b604051603e91906064565b60405180910390f35b60005481565b6000819050919050565b605e81604d565b82525050565b6000602082019050607760008301846057565b9291505056fea2646970667358221220827c91ac052d641286dab97f97cb04b31efebe765b3157b6fb1b8dc73d32ec4c64736f6c63430008100033",
  "immutableReferences": {},
  "source": "// SPDX-License-Identifier: MIT\r\n\r\npragma solidity >=0.4.2;\r\n\r\ncontract TOCToken{\r\n    //Constructor\r\n    uint256 public totalSupply;\r\n\r\nconstructor() {\r\n    //Set the total number of tokens\r\n    totalSupply=1000000;\r\n}\r\n\r\n    // Read the total number of tokens\r\n\r\n\r\n}",
  "sourcePath": "C:\\Users\\KGMAMF-IT\\Desktop\\Projects Test\\Web3\\cryptocurrency\\token_sale\\contracts\\TOCToken.sol",
  "compiler": {
    "name": "solc",
    "version": "0.8.16+commit.07a7930e.Emscripten.clang"
  },
  "schemaVersion": "3.4.9",
  "updatedAt": "2022-08-12T09:14:32.501Z",
  "networkType": "ethereum",
  "devdoc": {
    "kind": "dev",
    "methods": {},
    "version": 1
  },
  "userdoc": {
    "kind": "user",
    "methods": {},
    "version": 1
  }
}